S0160000524649445F446F6F725F4C6F636B2E737265630E
S113000046C2000065C2000063C2000061C2000075
S11300105FC200005DC200005BC2000059C2000064
S113002057C2000055C2000053C2000035C700008B
S11300304FC200004DC2000065C7000090C7000019
S1130040BBC70000E6C700000C9436080C94630894
S11300500C9490080C94BD080C94EA080C941709AD
S113006037C2000035C2000033C2000031C20000B4
S11300702FC200002DC200002BC2000029C20000C4
S113008027C2000025C2000023C2000021C20000D4
S11300901FC200001DC200001BC2000019C20000E4
S11300A017C2000015C2000013C2000011C20000F4
S11300B00FC200000DC200000BC200000C94060B1E
S11300C00C94330B0C94600B0C948D0B0C94BA0BA6
S11300D00C94E70B0C94140C0C94410C0C946E0CC3
S11300E00C949B0CF5C10000F3C10000F1C10000A9
S11300F0EFC10000EDC10000EBC10000E9C1000048
S1130100E7C10000E5C10000E3C10000E1C1000057
S1130110DFC10000DDC10000DBC10000D9C1000067
S1130120D7C10000D5C10000D3C10000D1C1000077
S1130130CFC100000C9444090C9471090C949E09DD
S11301400C94CB090C94F8090C94250A0C94520ACB
S11301500C947F0A0C94AC0A0C94D90AB9C100001F
S1130160B7C10000B5C10000B3C10000B1C10000B7
S1130170AFC10000ADC10000ABC10000A9C10000C7
S1130180A7C10000A5C10000A3C10000A1C10000D7
S11301909FC100009DC100009BC1000099C10000E7
S11301A097C1000095C1000093C1000091C10000F7
S11301B00C94C80C0C94F50C0C94220D0C944F0D5B
S11301C00C947C0D0C94A90D83C1000081C1000026
S11301D07FC100007DC100007BC1000079C1000027
S11301E077C1000075C1000073C1000071C1000037
S11301F06FC100006DC100006BC100000000000071
S1130200000000202020202000205050500000003A
S1130210005050F850F850502078A07028F020C0BA
S1130220C810204098186090A040A89068602040B2
S1130230000000001020404040201040201010100A
S11302402040005020F8205000002020F8202000FA
S113025000000000602040000000F80000000000E2
S1130260000000606000081020408000708898A89A
S1130270C8887020602020202070708808102040DA
S1130280F8F810201008887010305090F81010F80A
S113029080F008088870304080F0888870F8081072
S11302A020404040708888708888707088887808FA
S11302B010600060600060600000606000602040CA
S11302C0081020402010080000F800F800008040CA
S11302D02010204080708808102000207088086852
S11302E0A8A87070888888F88888F08888F088883A
S11302F0F070888080808870E09088888890E0F82A
S11303008080F08080F8F88080E080808070888031
S113031080988870888888F88888887020202020B1
S11303202070381010101090608890A0C0A09088A1
S1130330808080808080F888D8A888888888888889
S1130340C8A898888870888888888870F08888F019
S113035080808070888888A89068F08888F0A09051
S113036088788080700808F0F820202020202088D9
S113037088888888887088888888885020888888B1
S1130380A8A8D88888885020508888888850202039
S11303902020F80810204080F83820202020203821
S11303A000804020100800E02020202020E0205081
S11303B08800000000000000000000F84020100049
S11303C0000000000070087888788080B0C88888B1
S11303D0F000007080808870080868988888780029
S11303E0007088F88070304840E040404000007859
S11303F0887808308080B0C88888882000602020F1
S113040020701000301010906040404850605048F8
S1130410602020202020700000D0A8A88888000038
S1130420B0C8888888000070888888700000F088C8
S1130430F08080000068987808080000B0C88080C8
S113044080000070807008F04040E0404048300078
S11304500088888898680000888888502000008870
S113046088A8A85000008850205088000088887808
S113047008700000F8102040F810202040202010C0
S11304802020202020202040202010202040112443
S11304901FBECFEFCDBFDFE5DEBF00E00CBF10E233
S11304A0A0E0B0E2E6EBFCE200E00BBF02C0079084
S11304B00D92AC3DB107D9F723E2ACEDB0E201C037
S11304C01D92A935B207E1F70E9448150C945916FC
S11304D097CDBF92CF92DF92EF92FF920F931F932B
S11304E0CF93DF931F92CDB7DEB788E0E0E0F6E06C
S11304F0868385830F2EFBE2BF2EF02DB98280EA1E
S113050099E00E94E911C12CD12C760100E412E497
S11305102FE030E043E0BE016F5F7F4F80EA99E057
S11305200E94181200E616E0FF24F394F801F68204
S1130530B982BE016F5F7F4F80EA99E00E94321258
S1130540F801F682E0EAF9E0818185FFFDCF80EAD7
S11305508093A009E0EAF9E0818186FFFDCFE0EA1B
S1130560F9E080E481838081BE016F5F7F4F80EA80
S113057099E00E9448128BE28983BE016F5F7F4F2E
S113058080EA99E00E94321281E0E0E6F6E0868398
S1130590E0EAF9E0818185FFFDCF86EA8093A00936
S11305A0E0EAF9E0818186FFFDCFE0EAF9E080E44A
S11305B081838081BE016F5F7F4F80EA99E00E9452
S11305C048128BE28983BE016F5F7F4F80EA99E016
S11305D00E94321281E0E0E6F6E08683E0EAF9E088
S11305E0818185FFFDCF88EC8093A009E0EAF9E0E2
S11305F0818186FFFDCFE0EAF9E080E48183808198
S1130600BE016F5F7F4F80EA99E00E9448128BE23F
S11306108983BE016F5F7F4F80EA99E00E943212A6
S113062081E0E0E6F6E08683E0EAF9E0818185FF97
S1130630FDCF82EA8093A009E0EAF9E0818186FF98
S1130640FDCFE0EAF9E080E481838081BE016F5F41
S11306507F4F80EA99E00E9448128BE28983BE01B1
S11306606F5F7F4F80EA99E00E94321281E0E0E6FA
S1130670F6E08683E0EAF9E0818185FFFDCF8FE231
S11306808093A009E0EAF9E0818186FFFDCFE0EAEA
S1130690F9E080E481838081BE016F5F7F4F80EA4F
S11306A099E00E9448128BE28983BE016F5F7F4FFD
S11306B080EA99E00E94321281E0E0E6F6E0868367
S11306C0E0EAF9E0818185FFFDCF88EF8093A009FE
S11306D0E0EAF9E0818186FFFDCFE0EAF9E080E419
S11306E081838081BE016F5F7F4F80EA99E00E9421
S11306F048128BE28983BE016F5F7F4F80EA99E0E5
S11307000E94321281E0E0E6F6E08683E0EAF9E056
S1130710818185FFFDCF1092A009E0EAF9E0818193
S113072086FFFDCFE0EAF9E080E481838081BE01A9
S11307306F5F7F4F80EA99E00E9448128BE28983C1
S1130740BE016F5F7F4F80EA99E00E94321281E020
S1130750E0E6F6E08683E0EAF9E0818185FFFDCFFB
S113076081E28093A009E0EAF9E0818186FFFDCF70
S1130770E0EAF9E080E481838081BE016F5F7F4F0E
S113078080EA99E00E9448128BE28983BE016F5F80
S11307907F4F80EA99E00E94321281E0E0E6F6E0C1
S11307A08683E0EAF9E0818185FFFDCF81E88093CB
S11307B0A009E0EAF9E0818186FFFDCFE0EAF9E0F3
S11307C080E481838081BE016F5F7F4F80EA99E07E
S11307D00E9448128BE28983BE016F5F7F4F80EADB
S11307E099E00E94321281E0E0E6F6E08683E0EAD6
S11307F0F9E0818185FFFDCF81E28093A009E0EAE1
S1130800F9E0818186FFFDCFE0EAF9E080E48183AD
S11308108081BE016F5F7F4F80EA99E00E94481299
S11308208BE28983BE016F5F7F4F80EA99E00E946B
S1130830321281E0E0E6F6E08683E0EAF9E08181C5
S113084085FFFDCF8FEA8093A009E0EAF9E081817A
S113085086FFFDCFE0EAF9E080E481838081BE0178
S11308606F5F7F4F80EA99E00E9448120F90DF91FA
S1130870CF911F910F91FF90EF90DF90CF90BF9099
S11308800895AC0183709927892B71F59A013695E7
S1130890279536952795ABE7B4E10E9430169695D7
S11308A0879564E6689F9001699F300D1124421773
S11308B05307E1F49A01329522952F7023273F7054
S11308C02327AEE3BAE00E94301620E931E0829F8C
S11308D0B001839F700D929F700D112481E0461723
S11308E0570729F080E0089580E0089581E0089595
S11308F02F923F924F925F926F927F928F929F922C
S1130900AF92BF92CF92DF92EF92FF920F931F9319
S1130910CF93DF9300D01F92CDB7DEB71A0122EB3D
S113092037E0FA0125833683148220E831E541E07B
S113093050E00E940E1649015A0169837A838B8321
S11309409C8369017A010F2EFCE34F2E512C612CFC
S1130950712CF02DA30192010E940E16F101608307
S113096069817A818B819C8120E13EE040E050E006
S11309700E940E16122FA30192010E940E16F1017D
S113098021831283C501B4016C5F7F4F8F4F9F4F4A
S113099027E030E040E050E00E940E16F10167834A
S11309A00DE611E00F2EFEE68F2EF02D9924939480
S11309B00AC0C41AD50AE60AF70AFFEFAF1ABF0A3B
S11309C0F101A582B682F101A580B680C50159DF87
S11309D0882319F0482D592D02C0402F512F60E073
S11309E070E0C416D506E606F70618F7282F30E09F
S11309F0F1016481F901EE0FFF1FE20FF31FEE0F07
S1130A00FF1FEE0FFF1FE60FF11DEF55FF4D808115
S1130A1090E0A0E0B0E0C816D906EA06FB0610F1A3
S1130A206F5FA901440F551F240F351F220F331F79
S1130A30220F331FC81AD90AEA0AFB0AF901E60F82
S1130A40F11DEF55FF4D808190E0A0E0B0E041E062
S1130A50460FC816D906EA06FB0610F0642FEACF43
S1130A60F1016483F101C3822496CDBFDEBFDF911F
S1130A70CF911F910F91FF90EF90DF90CF90BF9097
S1130A80AF909F908F907F906F905F904F903F902A
S1130A902F9008958F929F92AF92BF92CF92DF9240
S1130AA0EF92FF920F931F936B017C01522F44230B
S1130AB0C4F030E0ACE3B0E00E943016C60ED71E9E
S1130AC0E81EF91EA42FBB27A7FDB09520E13EE048
S1130AD00E943F166C0D7D1D8E1D9F1DA80108DF11
S1130AE01CC0A42FBB27A7FDB09520E13EE00E94C7
S1130AF03F164B015C01252F30E0ACE3B0E00E94CF
S1130B003016861A970AA80AB90AC501B4016C0DF1
S1130B107D1D8E1D9F1DA801EBDE1F910F91FF907F
S1130B20EF90DF90CF90BF90AF909F908F900895FB
S1130B30FF920F931F93CF93DF931F92CDB7DEB72E
S1130B40F82E062F142F0E9463128F2D8F70806B46
S1130B50F82E8BE28983BE016F5F7F4F80EA99E0B4
S1130B600E94321281E0E0E6F6E08683E0EAF9E0F2
S1130B70918195FFFDCFF092A009E0EAF9E081812F
S1130B8086FFFDCFE0EAF9E080E481838081BE0145
S1130B906F5F7F4F80EA99E00E944812802F8F7721
S1130BA082958F708061F82E8BE28983BE016F5F1E
S1130BB07F4F80EA99E00E94321281E0E0E6F6E09D
S1130BC08683E0EAF9E0818185FFFDCFF092A009F8
S1130BD0E0EAF9E0818186FFFDCFE0EAF9E080E414
S1130BE081838081BE016F5F7F4F80EA99E00E941C
S1130BF048120F708BE28983BE016F5F7F4F80EADA
S1130C0099E00E94321281E0E0E6F6E08683E0EAB1
S1130C10F9E0818185FFFDCF0093A009E0EAF9E0C6
S1130C20818186FFFDCFE0EAF9E080E48183808161
S1130C30BE016F5F7F4F80EA99E00E9448128BE209
S1130C408983BE016F5F7F4F80EA99E00E94321270
S1130C5081E0E0E6F6E08583E0EAF9E0818185FF62
S1130C60FDCF1093A009E0EAF9E0818186FFFDCF72
S1130C70E0EAF9E080E48183808181E0E0E6F6E067
S1130C808683BE016F5F7F4F80EA99E00E9448121D
S1130C900F90DF91CF911F910F91FF9008950F93C3
S1130CA01F93CF93DF931F92CDB7DEB78CED90E205
S1130CB00E945E120EDC8BE28983BE016F5F7F4F60
S1130CC080EA99E00E94321281E0E0E6F6E0868351
S1130CD0E0EAF9E0818185FFFDCF80E48093A009FB
S1130CE0E0EAF9E0818186FFFDCFE0EAF9E080E403
S1130CF081838081BE016F5F7F4F80EA99E00E940B
S1130D00481200E00AC040E0612F802F11DF1F5F0E
S1130D101038C9F70F5F043011F010E0F4CF0F90D2
S1130D20DF91CF911F910F910895FF920F931F931D
S1130D30CF93DF93182F042F88237CF1603268F55A
S1130D40F62EF694F694F6942F2D30E031952195F5
S1130D503109220F331F220F331F220F331F260F97
S1130D60311DE1E0F0E0EF0102C0CC0FDD1F2A9558
S1130D70E2F7682F8F2D0E947212013021F028F0C3
S1130D80023031F006C08C2B04C0C0958C2301C006
S1130D908C27482F612F8F2DCBDEDF91CF911F91B0
S1130DA00F91FF9008950C947212089580E1E0E28F
S1130DB0F4E08183818184FDFDCFE0E2F4E064818D
S1130DC07581868197810895CF93DF93D82FE0EFC3
S1130DD0F0E0C18164E080E00E942213CC237CF027
S1130DE0C0FF04C0DD2369F082E010C0C1FD0BC068
S1130DF082E08093F000C2FF08C085E007C081E074
S1130E0005C083E003C084E001C080E0DF91CF919E
S1130E100895CF93DF9364E080E00E942213C0EF33
S1130E20D0E088818260888361E080EF90E00E9456
S1130E30B51388818460888380E090E001968234D1
S1130E409105E1F7E0EFF0E08081886080838181A3
S1130E5083FFFDCF10922004E0E2F4E0818180FD65
S1130E60FDCFE0E2F4E08FEF9FEFDC018087918714
S1130E70A287B3871482158216821782818180FD2E
S1130E80FDCFE0E2F4E0128281E08083818180FD85
S1130E90FDCFDF91CF9108951F920F920FB60F925D
S1130EA011240BB60F922F933F934F935F936F933D
S1130EB07F938F939F93AF93BF93CF93DF93EF93DE
S1130EC0FF93E0E2F4E01282C0912623D09127231D
S1130ED0209719F06BDFFE011995FF91EF91DF91D7
S1130EE0CF91BF91AF919F918F917F916F915F91BE
S1130EF04F913F912F910F900BBE0F900FBE0F900B
S1130F001F9018951F920F920FB60F9211240BB6D3
S1130F100F922F933F934F935F936F937F938F938E
S1130F209F93AF93BF93EF93FF93E0912223F091AC
S1130F302323309709F01995FF91EF91BF91AF9159
S1130F409F918F917F916F915F914F913F912F91DD
S1130F500F900BBE0F900FBE0F901F9018951F920D
S1130F600F920FB60F9211240BB60F922F933F934B
S1130F704F935F936F937F938F939F93AF93BF939D
S1130F80EF93FF93E0912023F0912123309709F010
S1130F901995FF91EF91BF91AF919F918F917F919F
S1130FA06F915F914F913F912F910F900BBE0F90D6
S1130FB00FBE0F901F9018951F920F920FB60F92AD
S1130FC011240BB60F922F933F934F935F936F931C
S1130FD07F938F939F93AF93BF93EF93FF93E0918E
S1130FE01E23F0911F23309709F01995FF91EF917B
S1130FF0BF91AF919F918F917F916F915F914F912D
S11310003F912F910F900BBE0F900FBE0F901F902A
S113101018951F920F920FB60F9211240BB60F92D0
S11310202F933F934F935F936F937F938F939F93EC
S1131030AF93BF93EF93FF93E0911C23F0911D2393
S1131040309709F01995FF91EF91BF91AF919F915E
S11310508F917F916F915F914F913F912F910F905D
S11310600BBE0F900FBE0F901F9018951F920F92FA
S11310700FB60F9211240BB60F922F933F934F93F9
S11310805F936F937F938F939F93AF93BF93EF93EC
S1131090FF93E0911A23F0911B23309709F01995DF
S11310A0FF91EF91BF91AF919F918F917F916F913C
S11310B05F914F913F912F910F900BBE0F900FBEF8
S11310C00F901F9018951F920F920FB60F92112434
S11310D00BB60F922F933F934F935F936F937F932E
S11310E08F939F93AF93BF93EF93FF93E091182354
S11310F0F0911923309709F01995FF91EF91BF9161
S1131100AF919F918F917F916F915F914F913F919B
S11311102F910F900BBE0F900FBE0F901F9018953C
S11311201F920F920FB60F9211240BB60F922F93AA
S11311303F934F935F936F937F938F939F93AF935B
S1131140BF93EF93FF93E0911623F0911723309709
S113115009F01995FF91EF91BF91AF919F918F91F4
S11311607F916F915F914F913F912F910F900BBEA3
S11311700F900FBE0F901F9018951F920F920FB6ED
S11311800F9211240BB60F922F933F934F935F93BB
S11311906F937F938F939F93AF93BF93EF93FF933B
S11311A0E0911423F0911523309709F01995FF91DC
S11311B0EF91BF91AF919F918F917F916F915F91CB
S11311C04F913F912F910F900BBE0F900FBE0F9038
S11311D01F9018951F920F920FB60F9211240BB601
S11311E00F922F933F934F935F936F937F938F93BC
S11311F09F93AF93BF93EF93FF93E0911223F091EA
S11312001323309709F01995FF91EF91BF91AF9196
S11312109F918F917F916F915F914F913F912F910A
S11312200F900BBE0F900FBE0F901F9018951F923A
S11312300F920FB60F9211240BB60F922F933F9378
S11312404F935F936F937F938F939F93AF93BF93CA
S1131250EF93FF93E0911023F0911123309709F05D
S11312601995FF91EF91BF91AF919F918F917F91CC
S11312706F915F914F913F912F910F900BBE0F9003
S11312800FBE0F901F9018951F920F920FB60F92DA
S113129011240BB60F922F933F934F935F936F9349
S11312A07F938F939F93AF93BF93EF93FF93E091BB
S11312B00E23F0910F23309709F01995FF91EF91C8
S11312C0BF91AF919F918F917F916F915F914F915A
S11312D03F912F910F900BBE0F900FBE0F901F9058
S11312E018951F920F920FB60F9211240BB60F92FE
S11312F02F933F934F935F936F937F938F939F931A
S1131300AF93BF93EF93FF93E0910C23F0910D23E0
S1131310309709F01995FF91EF91BF91AF919F918B
S11313208F917F916F915F914F913F912F910F908A
S11313300BBE0F900FBE0F901F9018951F920F9227
S11313400FB60F9211240BB60F922F933F934F9326
S11313505F936F937F938F939F93AF93BF93EF9319
S1131360FF93E0910A23F0910B23309709F019952C
S1131370FF91EF91BF91AF919F918F917F916F9169
S11313805F914F913F912F910F900BBE0F900FBE25
S11313900F901F9018951F920F920FB60F92112461
S11313A00BB60F922F933F934F935F936F937F935B
S11313B08F939F93AF93BF93EF93FF93E091082391
S11313C0F0910923309709F01995FF91EF91BF919E
S11313D0AF919F918F917F916F915F914F913F91C9
S11313E02F910F900BBE0F900FBE0F901F9018956A
S11313F01F920F920FB60F9211240BB60F922F93D8
S11314003F934F935F936F937F938F939F93AF9388
S1131410BF93EF93FF93E0910623F0910723309756
S113142009F01995FF91EF91BF91AF919F918F9121
S11314307F916F915F914F913F912F910F900BBED0
S11314400F900FBE0F901F9018951F920F920FB61A
S11314500F9211240BB60F922F933F934F935F93E8
S11314606F937F938F939F93AF93BF93EF93FF9368
S1131470E0910423F0910523309709F01995FF9129
S1131480EF91BF91AF919F918F917F916F915F91F8
S11314904F913F912F910F900BBE0F900FBE0F9065
S11314A01F9018951F920F920FB60F9211240BB62E
S11314B00F922F933F934F935F936F937F938F93E9
S11314C09F93AF93BF93EF93FF93E0910223F09127
S11314D00323309709F01995FF91EF91BF91AF91D4
S11314E09F918F917F916F915F914F913F912F9138
S11314F00F900BBE0F900FBE0F901F9018951F9268
S11315000F920FB60F9211240BB60F922F933F93A5
S11315104F935F936F937F938F939F93AF93BF93F7
S1131520EF93FF93E0910023F0910123309709F0AA
S11315301995FF91EF91BF91AF919F918F917F91F9
S11315406F915F914F913F912F910F900BBE0F9030
S11315500FBE0F901F9018951F920F920FB60F9207
S113156011240BB60F922F933F934F935F936F9376
S11315707F938F939F93AF93BF93EF93FF93E091E8
S1131580FE22F091FF22309709F01995FF91EF9117
S1131590BF91AF919F918F917F916F915F914F9187
S11315A03F912F910F900BBE0F900FBE0F901F9085
S11315B018951F920F920FB60F9211240BB60F922B
S11315C02F933F934F935F936F937F938F939F9347
S11315D0AF93BF93EF93FF93E091FC22F091FD2230
S11315E0309709F01995FF91EF91BF91AF919F91B9
S11315F08F917F916F915F914F913F912F910F90B8
S11316000BBE0F900FBE0F901F9018951F920F9254
S11316100FB60F9211240BB60F922F933F934F9353
S11316205F936F937F938F939F93AF93BF93EF9346
S1131630FF93E091FA22F091FB22309709F019957B
S1131640FF91EF91BF91AF919F918F917F916F9196
S11316505F914F913F912F910F900BBE0F900FBE52
S11316600F901F9018951F920F920FB60F9211248E
S11316700BB60F922F933F934F935F936F937F9388
S11316808F939F93AF93BF93EF93FF93E091F822CF
S1131690F091F922309709F01995FF91EF91BF91DC
S11316A0AF919F918F917F916F915F914F913F91F6
S11316B02F910F900BBE0F900FBE0F901F90189597
S11316C01F920F920FB60F9211240BB60F922F9305
S11316D03F934F935F936F937F938F939F93AF93B6
S11316E0BF93EF93FF93E091F622F091F7223097A6
S11316F009F01995FF91EF91BF91AF919F918F914F
S11317007F916F915F914F913F912F910F900BBEFD
S11317100F900FBE0F901F9018951F920F920FB647
S11317200F9211240BB60F922F933F934F935F9315
S11317306F937F938F939F93AF93BF93EF93FF9395
S1131740E091F422F091F522309709F01995FF9178
S1131750EF91BF91AF919F918F917F916F915F9125
S11317604F913F912F910F900BBE0F900FBE0F9092
S11317701F9018951F920F920FB60F9211240BB65B
S11317800F922F933F934F935F936F937F938F9316
S11317909F93AF93BF93EF93FF93E091F222F09165
S11317A0F322309709F01995FF91EF91BF91AF9112
S11317B09F918F917F916F915F914F913F912F9165
S11317C00F900BBE0F900FBE0F901F9018951F9295
S11317D00F920FB60F9211240BB60F922F933F93D3
S11317E04F935F936F937F938F939F93AF93BF9325
S11317F0EF93FF93E091F022F091F122309709F0FA
S11318001995FF91EF91BF91AF919F918F917F9126
S11318106F915F914F913F912F910F900BBE0F905D
S11318200FBE0F901F9018951F920F920FB60F9234
S113183011240BB60F922F933F934F935F936F93A3
S11318407F938F939F93AF93BF93EF93FF93E09115
S1131850EE22F091EF22309709F01995FF91EF9164
S1131860BF91AF919F918F917F916F915F914F91B4
S11318703F912F910F900BBE0F900FBE0F901F90B2
S113188018951F920F920FB60F9211240BB60F9258
S11318902F933F934F935F936F937F938F939F9374
S11318A0AF93BF93EF93FF93E091EC22F091ED227D
S11318B0309709F01995FF91EF91BF91AF919F91E6
S11318C08F917F916F915F914F913F912F910F90E5
S11318D00BBE0F900FBE0F901F9018951F920F9282
S11318E00FB60F9211240BB60F922F933F934F9381
S11318F05F936F937F938F939F93AF93BF93EF9374
S1131900FF93E091EA22F091EB22309709F01995C8
S1131910FF91EF91BF91AF919F918F917F916F91C3
S11319205F914F913F912F910F900BBE0F900FBE7F
S11319300F901F9018951F920F920FB60F921124BB
S11319400BB60F922F933F934F935F936F937F93B5
S11319508F939F93AF93BF93EF93FF93E091E8220C
S1131960F091E922309709F01995FF91EF91BF9119
S1131970AF919F918F917F916F915F914F913F9123
S11319802F910F900BBE0F900FBE0F901F901895C4
S11319901F920F920FB60F9211240BB60F922F9332
S11319A03F934F935F936F937F938F939F93AF93E3
S11319B0BF93EF93FF93E091E622F091E7223097F3
S11319C009F01995FF91EF91BF91AF919F918F917C
S11319D07F916F915F914F913F912F910F900BBE2B
S11319E00F900FBE0F901F9018951F920F920FB675
S11319F00F9211240BB60F922F933F934F935F9343
S1131A006F937F938F939F93AF93BF93EF93FF93C2
S1131A10E091E422F091E522309709F01995FF91C5
S1131A20EF91BF91AF919F918F917F916F915F9152
S1131A304F913F912F910F900BBE0F900FBE0F90BF
S1131A401F9018951F920F920FB60F9211240BB688
S1131A500F922F933F934F935F936F937F938F9343
S1131A609F93AF93BF93EF93FF93E091E222F091A2
S1131A70E322309709F01995FF91EF91BF91AF914F
S1131A809F918F917F916F915F914F913F912F9192
S1131A900F900BBE0F900FBE0F901F9018951F92C2
S1131AA00F920FB60F9211240BB60F922F933F9300
S1131AB04F935F936F937F938F939F93AF93BF9352
S1131AC0EF93FF93E091E022F091E122309709F047
S1131AD01995FF91EF91BF91AF919F918F917F9154
S1131AE06F915F914F913F912F910F900BBE0F908B
S1131AF00FBE0F901F9018951F920F920FB60F9262
S1131B0011240BB60F922F933F934F935F936F93D0
S1131B107F938F939F93AF93BF93EF93FF93E09142
S1131B20DE22F091DF22309709F01995FF91EF91B1
S1131B30BF91AF919F918F917F916F915F914F91E1
S1131B403F912F910F900BBE0F900FBE0F901F90DF
S1131B5018951F920F920FB60F9211240BB60F9285
S1131B602F933F934F935F936F937F938F939F93A1
S1131B70AF93BF93EF93FF93E091DC22F091DD22CA
S1131B80309709F01995FF91EF91BF91AF919F9113
S1131B908F917F916F915F914F913F912F910F9012
S1131BA00BBE0F900FBE0F901F901895FC01818102
S1131BB08823ECF7808108954F925F926F927F9211
S1131BC08F929F92AF92BF92CF92DF92EF92FF9249
S1131BD00F931F93CF93DF93EC014A015B0128011C
S1131BE03901D901C801689412F8B695A79597955B
S1131BF087951694D1F7B901A801032E36E176959D
S1131C006795579547953A95D1F7302D2C8122FD4C
S1131C1008C0B695A7959795879576956795579536
S1131C20479588159905AA05BB0508F4A2C0841632
S1131C309506A606B70608F49EC08C8182FD04C0F2
S1131C40880C991CAA1CBB1CC301B201A5019401F8
S1131C50E5D72F3F31054105510508F48EC0C12C4D
S1131C60D12C7601CA9419EF05C02C153D054E05FB
S1131C705F0568F0CC0CDD1CEE1CFF1C1D3F14F44A
S1131C806894C0F81F5F173081F7212F4EC0212FB1
S1131C9011230CF04AC0D501C401880F991FAA1F53
S1131CA0BB1F880F991FAA1FBB1F880F991FAA1F4C
S1131CB0BB1F481A590A6A0A7B0A1E3FECF46DEFEF
S1131CC07FEF611B710917FD739504C0440C551C0B
S1131CD0661C771C6A95D2F7D501C401B695A79501
S1131CE097958795BC01CD01640D751D861D971DC3
S1131CF0A501940193D734C023E0210FD501C40179
S1131D0004C0880F991FAA1FBB1F2A95D2F79C01F4
S1131D10AD01B695A79597958795BC01CD01640D46
S1131D20751D861D971D7AD71BC02D5FD501C40173
S1131D3004C0880F991FAA1FBB1F2A95D2F79C01C4
S1131D40AD01B695A79597958795BC01CD01640D16
S1131D50751D861D971D62D721503109410951090E
S1131D60832F8F701295107F182B1F832E8381E091
S1131D7018C080E016C080E014C0D501C401880FEB
S1131D80991FAA1FBB1F880F991FAA1FBB1F880F6B
S1131D90991FAA1FBB1F481A590A6A0A7B0A19EF1E
S1131DA08ECFDF91CF911F910F91FF90EF90DF9035
S1131DB0CF90BF90AF909F908F907F906F905F90E7
S1131DC04F9008950F931F93CF93DF93EC018B01F2
S1131DD0009709F4E6C0803C910521F460E180E0BD
S1131DE031D4DFC0C03881E0D80721F462E080E05C
S1131DF029D4D7C0C115E1E0DE0721F461E080E019
S1131E0021D4CFC0C038F3E0DF0721F461E081E0E2
S1131E1019D4C7C0C03983E0D80721F461E082E057
S1131E2011D4BFC0C115E2E0DE0721F462E081E015
S1131E3009D4B7C0C034F2E0DF0721F462E082E0E5
S1131E4001D4AFC0C03283E0D80721F464E082E05B
S1131E50F9D3A7C0C115E8E0DE0721F461E083E00F
S1131E60F1D39FC0C115F9E0DF0721F461E084E0FC
S1131E70E9D397C0C1158AE0D80721F461E085E071
S1131E80E1D38FC0C115EBE0DE0721F461E086E009
S1131E90D9D387C0C034F8E0DF0721F462E083E0DF
S1131EA0D1D37FC0C03489E0D80721F462E084E054
S1131EB0C9D377C0C034EAE0DE0721F462E085E0EC
S1131EC0C1D36FC0C039F8E0DF0721F464E083E0D8
S1131ED0B9D367C0C03989E0D80721F464E084E04D
S1131EE0B1D35FC0C039EAE0DE0721F464E085E0E5
S1131EF0A9D357C0C039FBE0DF0721F464E086E0D2
S1131F00A1D34FC0C03C88E0D80721F468E083E047
S1131F1099D347C0C03CE9E0DE0721F468E084E0DF
S1131F2091D33FC0C03AF8E0DF0721F460E183E0D9
S1131F3089D337C0C03A89E0D80721F460E184E04E
S1131F4081D32FC0C03AEAE0DE0721F460E185E0E6
S1131F5079D327C0C03AFBE0DF0721F460E186E0D3
S1131F6071D31FC0C03B88E0D80721F460E283E04E
S1131F7069D317C0C03BE9E0DE0721F460E284E0E6
S1131F8061D30FC0C038F4E0DF0721F460E483E0DC
S1131F9059D307C0C03A84E0D80719F460E485E057
S1131FA051D38D818F738D83F80194818581892B21
S1131FB09681992311F098E001C090E0892B8D83DC
S1131FC0F801408151816281738100E814E82EE1B7
S1131FD030E0CE01F1DD9C8198609C839C8190610E
S1131FE09C83DF91CF911F910F910895CF92DF923F
S1131FF0EF92FF920F931F93CF93DF93EC0168014D
S11320007901F694E794D794C7944C155D056E0551
S11320107F0570F46A017B01CC0CDD1CEE1CFF1CF7
S1132020C901B801A7019601F9D52150310902C0AF
S113203020E030E0832F8F708F832E83DF91CF9148
S11320401F910F91FF90EF90DF90CF900895FF9232
S11320500F931F93CF93DF93EC018B01009709F447
S11320609BC1803C910521F460E180E0EBD294C1F6
S1132070803821E0920721F462E080E0E3D28CC151
S1132080C11581E0D80721F461E080E0DBD284C18E
S1132090C038E3E0DE0721F461E081E0D3D27CC103
S11320A0C039F3E0DF0721F461E082E0CBD274C1F0
S11320B0C11522E0D20721F462E081E0C3D26CC1F1
S11320C0C03482E0D80721F462E082E0BBD264C16C
S11320D0C032E3E0DE0721F464E082E0B3D25CC105
S11320E0C115F8E0DF0721F461E083E0ABD254C10D
S11320F0C11529E0D20721F461E084E0A3D24CC1E8
S1132100C1158AE0D80721F461E085E09BD244C17F
S1132110C115EBE0DE0721F461E086E093D23CC117
S1132120C034F8E0DF0721F462E083E08BD234C1ED
S1132130C03429E0D20721F462E084E083D22CC1C8
S1132140C0348AE0D80721F462E085E07BD224C160
S1132150C039E8E0DE0721F464E083E073D21CC1F7
S1132160C039F9E0DF0721F464E084E06BD214C1E4
S1132170C0392AE0D20721F464E085E063D20CC1BF
S1132180C0398BE0D80721F464E086E05BD204C157
S1132190C03CE8E0DE0721F468E083E053D2FCC0F1
S11321A0C03CF9E0DF0721F468E084E04BD2F4C0DE
S11321B0C03A28E0D20771F460E183E043D2E0EA58
S11321C0F8E084818F7E8483F8013481325080EA80
S11321D098E043C0C03AF9E0DF0721F460E184E00D
S11321E031D2DAC0C03A2AE0D20721F460E185E0B6
S11321F029D2D2C0C03A8BE0D80721F460E186E04E
S113220021D2CAC0C03BE8E0DE0721F460E283E0EB
S113221019D2C2C0C03BF9E0DF0721F460E284E0D8
S113222011D2BAC0C03824E0D20721F460E483E0BC
S113223009D2B2C0C03A84E0D80721F460E485E052
S113224001D2AAC08C818F7E8C83FB0134813250F1
S1132250CE01C03AF8E0DF0751F4E0E4F6E0268569
S113226024FDA2C00F2EF1E1FF2EF02D04C0803B0F
S113227028E0920799F0803AE9E09E0751F4E0E6FD
S1132280F6E0268524FD95C00F2EF9E1FF2EF02DF2
S113229017C0803BF9E09F0701F104C00F2EF5E160
S11322A0FF2EF02D803A2AE0920751F4E0E8F6E0A0
S11322B0868584FD83C00F2EF1E2FF2EF02D16C01B
S11322C0803A9B4099F4E0EAF6E0868584FF0AC0F0
S11322D00F2EFDE2FF2EF02D09C00F2EFDE1FF2E83
S11322E0F02D04C00F2EF9E2FF2EF02DAF2DA69590
S11322F0A695A695F0E2AF9FD0011124BA5F2F2DC9
S1132300277081E090E0022E02C0880F991F0A9482
S1132310E2F711968C931197323010F430E401C037
S113232030E0FD017096E20FF11D9FB7F894208113
S1132330277020832081232B20839FBF15968C93A5
S11323408D81806C8D83F80184818D7F813021F4AF
S11323508D8182608D8303C08D818D7F8D83F80193
S11323608581882321F08D8184608D8303C08D81D4
S11323708B7F8D83F801408151816281738100E8F4
S113238014E82EE130E0CE0131DE8C8188608C834C
S11323908C8180618C8317C08C818F7E8C83F80143
S11323A034813250CE0163CF0F2EF5E1FF2EF02D94
S11323B062CF0F2EFDE1FF2EF02D82CF0F2EF5E21E
S11323C0FF2EF02D93CFDF91CF911F910F91FF90AE
S11323D00895803A28E0920721F460E183E032C155
S11323E00895803B28E0920721F460E283E02AC14B
S11323F00895803A29E0920721F460E184E022C143
S11324000895803B29E0920721F460E284E01AC138
S11324100895803A2AE0920721F460E185E012C130
S11324200895803A9B4019F460E186E00BC1089559
S11324300F931F93CF93DF9300D000D0CDB7DEB7B7
S113244009831A832B833C834D831E82BE016F5FF5
S11324507F4FFDDD2696CDBFDEBFDF91CF911F916B
S11324600F910895FB018081E82FE695E695E695A6
S113247040E2E49FF0011124FA5F877021E030E02C
S1132480A90102C0440F551F8A95E2F746830895B7
S1132490FB018081E82FE695E695E69540E2E49F0E
S11324A0F0011124FA5F877021E030E0A90102C035
S11324B0440F551F8A95E2F745830895809324239A
S11324C090932523089520E8829FC0011124FC01E4
S11324D0E60FF11D8091242390912523E80FF91F25
S11324E04083089520E8829FC0011124FC01E60F77
S11324F0F11D8091242390912523E80FF91F8081F9
S11325000895FF920F931F93CF93DF93E42FF0E08E
S1132510E80FF11DE138F10514F040E8481B4423AD
S113252009F45FC0C62FC695C695C695EC2FF0E09A
S1132530F195E195F109EE0FFF1FEE0FFF1FEE0F6E
S1132540FF1FDF01A60FB11DBD01E1E0F0E0DF01D7
S113255002C0AA0FBB1F6A95E2F70A2F213049F087
S113256068F0223009F03DC0D42FFF24FA94F80E0D
S11325702AC0D42FFF24FA94F80E07C0D42FFF24C6
S1132580FA94F80E0A2F00950FC01F2D1D0F612F0E
S11325908C2F0E94D306482F402B612F8C2F0E9432
S11325A09805D15091F71DC01F2D1D0F612F8C2F41
S11325B00E94D306482F4023612F8C2F0E94980538
S11325C0D15091F70EC01F2D1D0F612F8C2F0E942B
S11325D0D306482F4027612F8C2F0E949805D15095
S11325E091F7DF91CF911F910F91FF900895FF9282
S11325F00F931F93CF93DF93D82F142F222361F0CF
S1132600C22FFF24FA94F60E6F2D6C0F202F412F4A
S11326108D2F77DFC150C1F7DF91CF911F910F91BB
S1132620FF9008958FEF80937000809371008093E2
S1132630720080937300809374008093750080937C
S1132640760008959FB7F894E82FF0E0E059FF4F23
S113265060958081682360839FBF0895AF92BF9285
S1132660CF92DF92EF92FF920F931F93CF93DF935A
S1132670C82FD62EA42E790100E0F90124814381CC
S11326806A2D8D2DB4DFF701908191113AC08381B9
S1132690A82FA695A695A695877009F0AF5FF701B8
S11326A0C480AC9DD0011124EC2FF0E0E7018D81B2
S11326B0E81BF109AE9F9001AF9F300DBE9F300D16
S11326C011240980DA81C02DC20FD31FF701B38012
S11326D0BB20A1F000E010E0812F8D0D912F9770A9
S11326E019F4FE0104912196002324F441E06A2D9B
S11326F00E949506000F1F5F1B11EECFA394CA948E
S113270029F7DF91CF911F910F91FF90EF90DF9008
S1132710CF90BF90AF900895DF92EF92FF920F9306
S11327201F93CF93DF93E42E8901EC01F62ED62E6E
S113273089918A3031F4F80184818F5FE80EFD2C91
S113274009C08D3039F098014E2D6F2D87DFF801C7
S11327508381F80E88818111EBCFDF91CF911F9196
S11327600F91FF90EF90DF9008951BBEFC0128EDC0
S113277024BF60830895CF93DF93FC01709620E01B
S113278030E0C62FD0E0DE01022E02C0B595A79539
S11327900A94E2F7A0FD50832F5F3F4F3196283013
S11327A0310589F740FF0AC041FF03C0FC0165837E
S11327B002C0FC016683FC01618302C0FC016283E8
S11327C0DF91CF91089543E050E061E080EE97E01F
S11327D0D2DF43E050E062E080EE97E0CCDF43E0FC
S11327E050E060E180E696E0C6DF41E050E460E25C
S11327F080E696E0C0DF40E05BE160E280E896E0DE
S1132800BADF40E05BE162E080EA96E0B4DF40E0FA
S11328105BE164E080EA96E0AEDF43E050E062E032
S113282080E696E0A8DF43E050E068E080E696E0CA
S1132830A2DF43E050E068E080EA96E09CDF43E0FA
S113284050E061E080E696E096DF43E050E068E027
S113285080E096E090DF41E050E060E180E896E0BF
S11328608ADF43E050E062E080E696E084DF43E004
S113287050E068E080E696E07EDF40E050E064E00F
S113288080E696E078DF43E050E060E180EA96E09D
S113289072DF40E050E061E080E096E06CDF40E011
S11328A050E064E080E096E066DF40E050E062E003
S11328B080E296E060DF43E050E068E080E496E088
S11328C05ADF40E050E064E080E496E054DF43E007
S11328D050E068E080E696E04EDF40E050E064E0DF
S11328E080E696E048DF43E050E068E080E896E068
S11328F042DF40E050E064E080E896E03CCF089599
S11329000F931F93CF93DF9380EA98E04FD98A30D7
S1132910D9F7CDE4D3E207E513E280EA98E046D99B
S11329208993C017D107C9F780EA98E03FD921E01D
S113293030E08D3011F020E030E0C901DF91CF911B
S11329401F910F910895CF93DF9370914D23C7E0AA
S1132950D0E280E04EE453E227E533E208C061911F
S11329609D9169130BC0E217F307C9F70EC0988154
S1132970791304C0FA01DE011196F1CF8F5F2A9614
S11329808430A9F780E090E002C090E00196DF91E6
S1132990CF910895FF920F931F93CF93DF93CDB7F9
S11329A0DEB72897CDBFDEBFF62E7E838F83F80176
S11329B09DEC499F612D112466956695669580E38B
S11329C0860F8083660F862F880F880F680F461B3B
S11329D0405D41834AE34283399F712D11247695EA
S11329E07695769580E3870F8383770F872F880FFB
S11329F0880F780F371B305D34834583299F912DD1
S1132A00112496959695969580E3890F8683990F60
S1132A10892F880F880F980F291B205D278380E258
S1132A208087852F90E001962AE030E0B901E3D059
S1132A30605D6187805D82874FE243878F2D90E0E0
S1132A400196B901D8D0605D6487805D858746872B
S1132A508E819F81B901CFD0805D828BCB01B9017A
S1132A60CAD0805D818BCB01B901C5D0805D808BDC
S1132A70CB01B901C0D0805D8787138AC80128962D
S1132A80CDBFDEBFDF91CF911F910F91FF900895CD
S1132A909ADEC8DD6AE970E280EA98E093D963E9D6
S1132AA070E280EA9AE08ED90E944F0680E1E0E865
S1132AB0F6E0858364E080E0C5DDE0E2F4E0818156
S1132AC080FDFDCF80E00E94E40681110E94090789
S1132AD080E2E0E8F6E08283C0EED7E068949924CF
S1132AE091F80F2EF5E1AF2EF02D0F2EF6E1BF2E4B
S1132AF0F02D0F2EF5E0CF2EF02DD12CEE24E39403
S1132B000F2EF4E1FF2EF02DFBDE892BE9F31BDF02
S1132B1080935823882309F457C0EE8220E030E2E2
S1132B2040E060E089EB90E2F7DD20E030E24AE04B
S1132B3060E087EC90E2F0DD2091582330E02150F2
S1132B403109F29EC001F39E900D112420E030E281
S1132B504AE067E3815D9F4DDFDD0E94D606609306
S1132B60412370934223809343239093442305E4A9
S1132B7013E22EE145E00E944A0508E213E22091A7
S1132B804523309146234091472350914823609137
S1132B90492370914A2380914B2390914C23FADE70
S1132BA020E030E24F2D60E0B7DD8A2D9B2DAC2D67
S1132BB0BD2D0197A109B1090097A105B105C9F778
S1132BC00E944F06ED82A0CF9E8220E030E240E0DA
S1132BD060E08FEC90E2A0DD8A2D9B2DAC2DBD2D05
S1132BE00197A109B1090097A105B105C9F70E9490
S1132BF04F069D8289CF97FB072E16F4009406D0CA
S1132C0077FD08D042D007FC05D03EF4909581951D
S1132C109F4F0895709561957F4F0895A1E21A2EF4
S1132C20AA1BBB1BFD010DC0AA1FBB1FEE1FFF1F6C
S1132C30A217B307E407F50720F0A21BB30BE40BBC
S1132C40F50B661F771F881F991F1A9469F7609503
S1132C507095809590959B01AC01BD01CF010895BD
S1132C60A29FB001B39FC001A39F700D811D1124C9
S1132C70911DB29F700D811D1124911D0895F0DFE7
S1132C80B7FF0895821B930B0895AA1BBB1B51E148
S1132C9007C0AA1FBB1FA617B70710F0A61BB70BC8
S1132CA0881F991F5A95A9F780959095BC01CD016D
S1092CB00895F894FFCF23
S1132CB600FC010607207D3635303032343244318B
S1132CC644363530303234343734433635303032A6
S1132CD63433363042363530303234353735445273
S1132CE6696B656E00000000000000000000000033
S1132CF60000004D696C616E0000000000000000D9
S1132D060000000000000052616A617400000000C7
S1132D1600000000000000000000005275636869AE
S1132D267400000000000000000000000000000025
S1132D360000000000000000000000000000000089
S1132D460000000096000003000080250000030038
S1132D56001F1C1F1E1F1E1F1F1E1F1E1F1F1D1FA1
S1132D661E1F1E1F1F1E1F1E1F4361726420446503
S1132D767465637465640057656C636F6D650049BB
S10F2D866E76616C696420436172640025
S9030000FC
